{
  "_format": "hh-sol-artifact-1",
  "contractName": "Freelancing",
  "sourceName": "contracts/Freelancing.sol",
  "abi": [
    {
      "inputs": [],
      "stateMutability": "nonpayable",
      "type": "constructor"
    },
    {
      "inputs": [
        {
          "internalType": "uint256",
          "name": "_projectId",
          "type": "uint256"
        }
      ],
      "name": "acceptWork",
      "outputs": [],
      "stateMutability": "nonpayable",
      "type": "function"
    },
    {
      "inputs": [
        {
          "internalType": "uint256",
          "name": "_projectId",
          "type": "uint256"
        }
      ],
      "name": "cancelProject",
      "outputs": [],
      "stateMutability": "nonpayable",
      "type": "function"
    },
    {
      "inputs": [
        {
          "internalType": "uint256",
          "name": "_projectId",
          "type": "uint256"
        }
      ],
      "name": "completeWork",
      "outputs": [],
      "stateMutability": "nonpayable",
      "type": "function"
    },
    {
      "inputs": [
        {
          "internalType": "address payable",
          "name": "_client",
          "type": "address"
        },
        {
          "internalType": "address payable",
          "name": "_freelancer",
          "type": "address"
        },
        {
          "internalType": "uint256",
          "name": "_duration",
          "type": "uint256"
        }
      ],
      "name": "createProject",
      "outputs": [
        {
          "internalType": "uint256",
          "name": "",
          "type": "uint256"
        }
      ],
      "stateMutability": "payable",
      "type": "function"
    },
    {
      "inputs": [],
      "name": "projectId",
      "outputs": [
        {
          "internalType": "uint256",
          "name": "",
          "type": "uint256"
        }
      ],
      "stateMutability": "view",
      "type": "function"
    },
    {
      "inputs": [
        {
          "internalType": "uint256",
          "name": "",
          "type": "uint256"
        }
      ],
      "name": "projects",
      "outputs": [
        {
          "internalType": "address payable",
          "name": "client",
          "type": "address"
        },
        {
          "internalType": "address payable",
          "name": "freelancer",
          "type": "address"
        },
        {
          "internalType": "uint256",
          "name": "amount",
          "type": "uint256"
        },
        {
          "internalType": "uint256",
          "name": "deadline",
          "type": "uint256"
        },
        {
          "internalType": "bool",
          "name": "workCompleted",
          "type": "bool"
        },
        {
          "internalType": "bool",
          "name": "workAccepted",
          "type": "bool"
        },
        {
          "internalType": "bool",
          "name": "fundsReleased",
          "type": "bool"
        },
        {
          "internalType": "bool",
          "name": "cancelled",
          "type": "bool"
        },
        {
          "internalType": "bool",
          "name": "dispute",
          "type": "bool"
        }
      ],
      "stateMutability": "view",
      "type": "function"
    },
    {
      "inputs": [
        {
          "internalType": "uint256",
          "name": "_projectId",
          "type": "uint256"
        }
      ],
      "name": "raiseDispute",
      "outputs": [],
      "stateMutability": "nonpayable",
      "type": "function"
    },
    {
      "inputs": [
        {
          "internalType": "uint256",
          "name": "_projectId",
          "type": "uint256"
        }
      ],
      "name": "refund",
      "outputs": [],
      "stateMutability": "nonpayable",
      "type": "function"
    },
    {
      "inputs": [
        {
          "internalType": "uint256",
          "name": "_projectId",
          "type": "uint256"
        }
      ],
      "name": "releaseFunds",
      "outputs": [],
      "stateMutability": "nonpayable",
      "type": "function"
    },
    {
      "inputs": [
        {
          "internalType": "uint256",
          "name": "_projectId",
          "type": "uint256"
        },
        {
          "internalType": "bool",
          "name": "Cfavour",
          "type": "bool"
        }
      ],
      "name": "resolveDispute",
      "outputs": [],
      "stateMutability": "nonpayable",
      "type": "function"
    }
  ],
  "bytecode": "0x6080604052600060025534801561001557600080fd5b50336000806101000a81548173ffffffffffffffffffffffffffffffffffffffff021916908373ffffffffffffffffffffffffffffffffffffffff160217905550611c43806100656000396000f3fe6080604052600436106100915760003560e01c80634d68282f116100595780634d68282f146101815780634e533b78146101aa578063873a2878146101d3578063a5c1674e146101fc578063f94d19ba1461022557610091565b8063107046bd1461009657806324941147146100db578063278ecde11461010457806334b25ee21461012d5780633fafa12714610156575b600080fd5b3480156100a257600080fd5b506100bd60048036038101906100b8919061102c565b610255565b6040516100d2999897969594939291906110c4565b60405180910390f35b3480156100e757600080fd5b5061010260048036038101906100fd919061102c565b610324565b005b34801561011057600080fd5b5061012b6004803603810190610126919061102c565b610440565b005b34801561013957600080fd5b50610154600480360381019061014f919061117d565b610612565b005b34801561016257600080fd5b5061016b610815565b60405161017891906111bd565b60405180910390f35b34801561018d57600080fd5b506101a860048036038101906101a3919061102c565b61081b565b005b3480156101b657600080fd5b506101d160048036038101906101cc919061102c565b610a3d565b005b3480156101df57600080fd5b506101fa60048036038101906101f5919061102c565b610b59565b005b34801561020857600080fd5b50610223600480360381019061021e919061102c565b610c74565b005b61023f600480360381019061023a9190611204565b610dea565b60405161024c91906111bd565b60405180910390f35b60016020528060005260406000206000915090508060000160009054906101000a900473ffffffffffffffffffffffffffffffffffffffff16908060010160009054906101000a900473ffffffffffffffffffffffffffffffffffffffff16908060020154908060030154908060040160009054906101000a900460ff16908060040160019054906101000a900460ff16908060040160029054906101000a900460ff16908060040160039054906101000a900460ff16908060040160049054906101000a900460ff16905089565b60006001600083815260200190815260200160002090508060000160009054906101000a900473ffffffffffffffffffffffffffffffffffffffff1673ffffffffffffffffffffffffffffffffffffffff163373ffffffffffffffffffffffffffffffffffffffff16146103cd576040517f08c379a00000000000000000000000000000000000000000000000000000000081526004016103c4906112da565b60405180910390fd5b8060040160009054906101000a900460ff161561041f576040517f08c379a00000000000000000000000000000000000000000000000000000000081526004016104169061136c565b60405180910390fd5b60018160040160036101000a81548160ff0219169083151502179055505050565b60006001600083815260200190815260200160002090508060010160009054906101000a900473ffffffffffffffffffffffffffffffffffffffff1673ffffffffffffffffffffffffffffffffffffffff163373ffffffffffffffffffffffffffffffffffffffff16146104e9576040517f08c379a00000000000000000000000000000000000000000000000000000000081526004016104e0906113fe565b60405180910390fd5b8060030154421015610530576040517f08c379a000000000000000000000000000000000000000000000000000000000815260040161052790611490565b60405180910390fd5b8060040160029054906101000a900460ff1615610582576040517f08c379a0000000000000000000000000000000000000000000000000000000008152600401610579906114fc565b60405180910390fd5b60018160040160026101000a81548160ff0219169083151502179055508060000160009054906101000a900473ffffffffffffffffffffffffffffffffffffffff1673ffffffffffffffffffffffffffffffffffffffff166108fc82600201549081150290604051600060405180830381858888f1935050505015801561060d573d6000803e3d6000fd5b505050565b600060016000848152602001908152602001600020905060008054906101000a900473ffffffffffffffffffffffffffffffffffffffff1673ffffffffffffffffffffffffffffffffffffffff163373ffffffffffffffffffffffffffffffffffffffff16146106b7576040517f08c379a00000000000000000000000000000000000000000000000000000000081526004016106ae9061158e565b60405180910390fd5b8060040160049054906101000a900460ff1615610709576040517f08c379a000000000000000000000000000000000000000000000000000000000815260040161070090611620565b60405180910390fd5b8115610783578060000160009054906101000a900473ffffffffffffffffffffffffffffffffffffffff1673ffffffffffffffffffffffffffffffffffffffff166108fc82600201549081150290604051600060405180830381858888f1935050505015801561077d573d6000803e3d6000fd5b506107f3565b8060010160009054906101000a900473ffffffffffffffffffffffffffffffffffffffff1673ffffffffffffffffffffffffffffffffffffffff166108fc82600201549081150290604051600060405180830381858888f193505050501580156107f1573d6000803e3d6000fd5b505b60018160040160026101000a81548160ff021916908315150217905550505050565b60025481565b60006001600083815260200190815260200160002090508060000160009054906101000a900473ffffffffffffffffffffffffffffffffffffffff1673ffffffffffffffffffffffffffffffffffffffff163373ffffffffffffffffffffffffffffffffffffffff16146108c4576040517f08c379a00000000000000000000000000000000000000000000000000000000081526004016108bb906116b2565b60405180910390fd5b8060040160019054906101000a900460ff16610915576040517f08c379a000000000000000000000000000000000000000000000000000000000815260040161090c90611744565b60405180910390fd5b8060030154421061095b576040517f08c379a0000000000000000000000000000000000000000000000000000000008152600401610952906117d6565b60405180910390fd5b8060040160029054906101000a900460ff16156109ad576040517f08c379a00000000000000000000000000000000000000000000000000000000081526004016109a4906114fc565b60405180910390fd5b60018160040160026101000a81548160ff0219169083151502179055508060010160009054906101000a900473ffffffffffffffffffffffffffffffffffffffff1673ffffffffffffffffffffffffffffffffffffffff166108fc82600201549081150290604051600060405180830381858888f19350505050158015610a38573d6000803e3d6000fd5b505050565b60006001600083815260200190815260200160002090508060040160039054906101000a900460ff1615610aa6576040517f08c379a0000000000000000000000000000000000000000000000000000000008152600401610a9d90611868565b60405180910390fd5b8060010160009054906101000a900473ffffffffffffffffffffffffffffffffffffffff1673ffffffffffffffffffffffffffffffffffffffff163373ffffffffffffffffffffffffffffffffffffffff1614610b38576040517f08c379a0000000000000000000000000000000000000000000000000000000008152600401610b2f906118fa565b60405180910390fd5b60018160040160006101000a81548160ff0219169083151502179055505050565b60006001600083815260200190815260200160002090508060000160009054906101000a900473ffffffffffffffffffffffffffffffffffffffff1673ffffffffffffffffffffffffffffffffffffffff163373ffffffffffffffffffffffffffffffffffffffff1614610c02576040517f08c379a0000000000000000000000000000000000000000000000000000000008152600401610bf99061198c565b60405180910390fd5b8060040160009054906101000a900460ff16610c53576040517f08c379a0000000000000000000000000000000000000000000000000000000008152600401610c4a90611a1e565b60405180910390fd5b60018160040160016101000a81548160ff0219169083151502179055505050565b60006001600083815260200190815260200160002090508060000160009054906101000a900473ffffffffffffffffffffffffffffffffffffffff1673ffffffffffffffffffffffffffffffffffffffff163373ffffffffffffffffffffffffffffffffffffffff161480610d3857508060010160009054906101000a900473ffffffffffffffffffffffffffffffffffffffff1673ffffffffffffffffffffffffffffffffffffffff163373ffffffffffffffffffffffffffffffffffffffff16145b610d77576040517f08c379a0000000000000000000000000000000000000000000000000000000008152600401610d6e90611ab0565b60405180910390fd5b8060040160029054906101000a900460ff1615610dc9576040517f08c379a0000000000000000000000000000000000000000000000000000000008152600401610dc090611b42565b60405180910390fd5b60018160040160046101000a81548160ff0219169083151502179055505050565b600060026000815480929190610dff90611b91565b91905055506040518061012001604052808573ffffffffffffffffffffffffffffffffffffffff1681526020018473ffffffffffffffffffffffffffffffffffffffff1681526020013481526020018342610e5a9190611bd9565b81526020016000151581526020016000151581526020016000151581526020016000151581526020016000151581525060016000600254815260200190815260200160002060008201518160000160006101000a81548173ffffffffffffffffffffffffffffffffffffffff021916908373ffffffffffffffffffffffffffffffffffffffff16021790555060208201518160010160006101000a81548173ffffffffffffffffffffffffffffffffffffffff021916908373ffffffffffffffffffffffffffffffffffffffff160217905550604082015181600201556060820151816003015560808201518160040160006101000a81548160ff02191690831515021790555060a08201518160040160016101000a81548160ff02191690831515021790555060c08201518160040160026101000a81548160ff02191690831515021790555060e08201518160040160036101000a81548160ff0219169083151502179055506101008201518160040160046101000a81548160ff02191690831515021790555090505060025490509392505050565b600080fd5b6000819050919050565b61100981610ff6565b811461101457600080fd5b50565b60008135905061102681611000565b92915050565b60006020828403121561104257611041610ff1565b5b600061105084828501611017565b91505092915050565b600073ffffffffffffffffffffffffffffffffffffffff82169050919050565b600061108482611059565b9050919050565b61109481611079565b82525050565b6110a381610ff6565b82525050565b60008115159050919050565b6110be816110a9565b82525050565b6000610120820190506110da600083018c61108b565b6110e7602083018b61108b565b6110f4604083018a61109a565b611101606083018961109a565b61110e60808301886110b5565b61111b60a08301876110b5565b61112860c08301866110b5565b61113560e08301856110b5565b6111436101008301846110b5565b9a9950505050505050505050565b61115a816110a9565b811461116557600080fd5b50565b60008135905061117781611151565b92915050565b6000806040838503121561119457611193610ff1565b5b60006111a285828601611017565b92505060206111b385828601611168565b9150509250929050565b60006020820190506111d2600083018461109a565b92915050565b6111e181611079565b81146111ec57600080fd5b50565b6000813590506111fe816111d8565b92915050565b60008060006060848603121561121d5761121c610ff1565b5b600061122b868287016111ef565b935050602061123c868287016111ef565b925050604061124d86828701611017565b9150509250925092565b600082825260208201905092915050565b7f4f6e6c792074686520636c69656e742063616e2063616e63656c20746865207060008201527f726f6a6563740000000000000000000000000000000000000000000000000000602082015250565b60006112c4602683611257565b91506112cf82611268565b604082019050919050565b600060208201905081810360008301526112f3816112b7565b9050919050565b7f576f726b20697320636f6d706c6574656420736f207468652070726f6a65637460008201527f2063616e6e6f742062652063616e63656c6c6564000000000000000000000000602082015250565b6000611356603483611257565b9150611361826112fa565b604082019050919050565b6000602082019050818103600083015261138581611349565b9050919050565b7f4f6e6c792074686520667265656c616e6365722063616e20726571756573742060008201527f6120726566756e64000000000000000000000000000000000000000000000000602082015250565b60006113e8602883611257565b91506113f38261138c565b604082019050919050565b60006020820190508181036000830152611417816113db565b9050919050565b7f526566756e64732063616e206f6e6c792062652072657175657374656420616660008201527f7465722074686520646561646c696e6500000000000000000000000000000000602082015250565b600061147a603083611257565b91506114858261141e565b604082019050919050565b600060208201905081810360008301526114a98161146d565b9050919050565b7f46756e6473206861766520616c7265616479206265656e2072656c6561736564600082015250565b60006114e6602083611257565b91506114f1826114b0565b602082019050919050565b60006020820190508181036000830152611515816114d9565b9050919050565b7f4f6e6c79206d65646961746f7220697320616c6c6f77656420746f207265736f60008201527f6c76652064697370757465000000000000000000000000000000000000000000602082015250565b6000611578602b83611257565b91506115838261151c565b604082019050919050565b600060208201905081810360008301526115a78161156b565b9050919050565b7f44697370757465206973206e6f742072616973656420746f206265207265736f60008201527f6c76656400000000000000000000000000000000000000000000000000000000602082015250565b600061160a602483611257565b9150611615826115ae565b604082019050919050565b60006020820190508181036000830152611639816115fd565b9050919050565b7f4f6e6c792074686520636c69656e742063616e2072656c65617365207468652060008201527f66756e6473000000000000000000000000000000000000000000000000000000602082015250565b600061169c602583611257565b91506116a782611640565b604082019050919050565b600060208201905081810360008301526116cb8161168f565b9050919050565b7f576f726b206d757374206265206163636570746564206265666f72652066756e60008201527f64732063616e2062652072656c65617365640000000000000000000000000000602082015250565b600061172e603283611257565b9150611739826116d2565b604082019050919050565b6000602082019050818103600083015261175d81611721565b9050919050565b7f446561646c696e6520686173207061737365642c2066756e64732063616e6e6f60008201527f742062652072656c656173656400000000000000000000000000000000000000602082015250565b60006117c0602d83611257565b91506117cb82611764565b604082019050919050565b600060208201905081810360008301526117ef816117b3565b9050919050565b7f5468652070726f6a656374206973206e6f206c6f6e67657220617661696c616260008201527f6c65000000000000000000000000000000000000000000000000000000000000602082015250565b6000611852602283611257565b915061185d826117f6565b604082019050919050565b6000602082019050818103600083015261188181611845565b9050919050565b7f4f6e6c792074686520667265656c616e6365722063616e20636f6d706c65746560008201527f2074686520776f726b0000000000000000000000000000000000000000000000602082015250565b60006118e4602983611257565b91506118ef82611888565b604082019050919050565b60006020820190508181036000830152611913816118d7565b9050919050565b7f4f6e6c792074686520636c69656e742063616e2061636365707420746865207760008201527f6f726b0000000000000000000000000000000000000000000000000000000000602082015250565b6000611976602383611257565b91506119818261191a565b604082019050919050565b600060208201905081810360008301526119a581611969565b9050919050565b7f576f726b206d75737420626520636f6d706c65746564206265666f726520697460008201527f2063616e20626520616363657074656400000000000000000000000000000000602082015250565b6000611a08603083611257565b9150611a13826119ac565b604082019050919050565b60006020820190508181036000830152611a37816119fb565b9050919050565b7f4f6e6c7920636c69656e7420616e6420667265656c616e6365722063616e207260008201527f6169736520746865206469737075746500000000000000000000000000000000602082015250565b6000611a9a603083611257565b9150611aa582611a3e565b604082019050919050565b60006020820190508181036000830152611ac981611a8d565b9050919050565b7f50726f6a6563742066756e6473206172652072656c656173656420736f20746860008201527f6520646973707574652063616e6e6f7420626520726169736564000000000000602082015250565b6000611b2c603a83611257565b9150611b3782611ad0565b604082019050919050565b60006020820190508181036000830152611b5b81611b1f565b9050919050565b7f4e487b7100000000000000000000000000000000000000000000000000000000600052601160045260246000fd5b6000611b9c82610ff6565b91507fffffffffffffffffffffffffffffffffffffffffffffffffffffffffffffffff8203611bce57611bcd611b62565b5b600182019050919050565b6000611be482610ff6565b9150611bef83610ff6565b9250828201905080821115611c0757611c06611b62565b5b9291505056fea2646970667358221220b50febf9e49d3bc6ae5e233e989318509e4aa820a3887dd33edc93d2eda05d2264736f6c63430008120033",
  "linkReferences": {},
  "deployedLinkReferences": {}
}